:100000000C9463000C948B000C948B000C948B006C
:100010000C948B000C948B000C948B000C948B0034
:100020000C948B000C948B000C948B000C945C0251
:100030000C948B000C948B000C948B000C948B0014
:100040000C944E040C948B000C9402070C943E0705
:100050000C948B000C948B000C948B000C948B00F4
:100060000C948B000C948B00000000070002010030
:100070000003040600000000000000000102040864
:100080001020408001020408102001020408102002
:10009000040404040404040402020202020203032E
:1000A00003030303000000002300260029000000D2
:1000B0000000250028002B0000000000240027007D
:1000C0002A005802F90711241FBECFEFD8E0DEBF87
:1000D000CDBF11E0A0E0B1E0E4EDF1E102C0059098
:1000E0000D92AA31B107D9F711E0AAE1B1E001C040
:1000F0001D92AD3FB107E1F710E0C6ECD0E004C0BF
:100100002297FE010E94D808C23CD107C9F70E947D
:1001100059060C94E8080C940000CF92DF92EF92FD
:10012000FF9280931F01682F70E083E00E94EF042C
:10013000C0900001D0900101E0900201F090030115
:100140000E9498046C0D7D1D8E1D9F1D60931B01E8
:1001500070931C0180931D0190931E01FF90EF90FE
:10016000DF90CF90089560911F0186E591E00C9497
:10017000CB06CF92DF92EF92FF920E949804C0903C
:100180000401D0900501E0900601F09007016C0D8C
:100190007D1D8E1D9F1D6093200170932101809312
:1001A0002201909323010FC0C0902001D090210123
:1001B000E0902201F09023010E949804C616D70611
:1001C000E806F90640F086E591E00E946606892B74
:1001D00059F381E001C080E0FF90EF90DF90CF9075
:1001E0000895CF93C82F682F70E084E291E00E94B9
:1001F000F003C0930801CF910895CF92DF92EF9260
:10020000FF9240E855E260E070E086E591E00E94F0
:10021000790769E070E084E291E00E94B703809181
:1002200008010E94F10061E08FE00E947A0560E021
:100230008EE00E947A0561E08FE00E94B20584E6BC
:1002400090E00E94AA0460E08FE00E94B20561E0A5
:1002500083E00E947A0560911F0170E083E00E94B4
:10026000EF04C0900001D0900101E0900201F090F5
:1002700003010E9498046C0D7D1D8E1D9F1D6093CF
:100280001B0170931C0180931D0190931E0161E07E
:1002900085E00E947A0560911A0170E085E0FF9088
:1002A000EF90DF90CF900C94EF046091080186E509
:1002B00091E00C94CB06662319F0613051F402C032
:1002C0000C948D0080931A01682F70E085E00C94E7
:1002D000EF0408958F929F92AF92BF92CF92DF92D8
:1002E000EF92FF920F931F93CF93DF9300D01F9253
:1002F000CDB7DEB78EE00E94E905892BD9F78E01D4
:100300000D5F1F4F4E01C12CD12C7601C39434C018
:1003100061E08FE00E94B2058EE00E94E905892B22
:1003200079F0D701C6010A2C04C0880F991FAA1FB3
:10033000BB1F0A94D2F7F8012081282B20830FC01D
:10034000D701C6010A2C04C0880F991FAA1FBB1F22
:100350000A94D2F78095F80190819823908360E009
:100360008FE00E94B205F1E0AF1AB10888F60150A3
:1003700011090815190521F087E0A82EB12CC8CF66
:1003800061E08FE00E94B20560E08FE00E94B2055C
:100390006B8186E591E00E94CB066A8186E591E05B
:1003A0000E94CB06698186E591E00F900F900F9037
:1003B000DF91CF911F910F91FF90EF90DF90CF9041
:1003C000BF90AF909F908F900C94CB060F931F938C
:1003D00086E591E00E946606892B09F452C086E505
:1003E00091E00E94950699278031910549F14CF4DE
:1003F00084309105F9F088309105F9F0892B79F076
:1004000040C08831910599F11CF44197D1F523C082
:100410008038910579F18138910599F52DC00E94B8
:10042000B900882371F186E591E00E9495060E944B
:10043000F10027C00E94550124C00E946A0121C01A
:100440000E94B9008823E9F086E591E00E949506B4
:100450000E948D0016C00E94B900882391F086E5A5
:1004600091E00E94950661E00E945B010AC00E9433
:10047000B30007C06AE001C06BE086E591E00E942E
:10048000CB060E94980400911B0110911C01209141
:100490001D0130911E01061717072807390728F498
:1004A00080E01F910F910C948D001F910F91089582
:1004B00084E291E00C941A031F920F920FB60F92F0
:1004C00011242F933F934F935F936F937F938F9359
:1004D0009F93AF93BF93EF93FF938091280187FF82
:1004E00005C010928500109284001AC02091280146
:1004F000332727FD30958091270190E02817390791
:100500007CF480912801992787FD9095FC01EE0FDE
:10051000FF1FE80FF91FE75DFE4F808186FD37C0A2
:10052000809128018F5F8093280120912801332733
:1005300027FD30958091270190E028173907CCF5E9
:10054000809128018C30F4F134C0809128019927E2
:1005500087FD9095FC01EE0FFF1FE80FF91FE75D87
:10056000FE4F808161E08F730E94B20552C080E42B
:100570009CE905C080918400909185000496909339
:100580008900809388008FEF8093280142C080917A
:100590002801992787FD9095FC01EE0FFF1FE80FBA
:1005A000F91FE75DFE4F808160E08F730E94B20506
:1005B000B7CF8091840090918500049680349C4947
:1005C000B0F2D8CF809184009091850020912801CD
:1005D000332727FD3095F901EE0FFF1FE20FF31FC0
:1005E000E75DFE4F21813281820F931F9093890036
:1005F0008093880080912801992787FD9095FC01C0
:10060000EE0FFF1FE80FF91FE75DFE4F808186FDAB
:100610009CCFFF91EF91BF91AF919F918F917F916F
:100620006F915F914F913F912F910F900FBE0F905F
:100630001F901895209127012C30A0F4FC012083F5
:10064000822F8F5F80932701822F90E0FC01EE0FB5
:10065000FF1FE80FF91FE75DFE4F88EB9BE09283D9
:10066000818308952FEFFC0120830895DF92EF929C
:10067000FF920F931F93CF93DF93EC01D62E7A0155
:10068000890188818C3008F065C061E08D2D0E9461
:100690007A058881A82FB0E0FD01EE0FFF1FEA0F59
:1006A000FB1FE75DFE4F2D2D2F739081907C922BC9
:1006B000908360E272E06E197F0977FF02C06D5F80
:1006C0007F4F7595679575956795698340E659E005
:1006D000401B510B57FF02C04D5F5F4F559547952B
:1006E000559547954A836CE00E9481089CE0899F5C
:1006F000B001112420E030E0A901460F571FFA0194
:10070000EE0FFF1FE40FF51FE75DFE4F908196FD92
:1007100015C02F5F3F4F2C30310571F71DC010926F
:10072000800082E080938100109285001092840006
:10073000B19A80916F00826080936F00888190E011
:10074000FC01EE0FFF1FE80FF91FE75DFE4F8081F0
:1007500080648083888103C0882309F3EFCFDF9111
:10076000CF911F910F91FF90EF90DF90089520E6B9
:1007700039E040E252E00C943603FC0180818C3079
:1007800070F5918128E830E0291B310997FD3395F8
:10079000220F331F220F331F621773077CF09281E1
:1007A00028E532E0291B310997FD3395220F331FCD
:1007B000220F331F621773070CF49B014FB7F89495
:1007C00090E0FC01EE0FFF1FE80FF91FE75DFE4F01
:1007D00022503109220F331F328321834FBF0895E6
:1007E000AF92BF92CF92DF92EF92FF920F931F933F
:1007F000CF93DF93EC01603282E078070CF041C0C8
:1008000077FD04C0653B710524F405C060E070E02D
:1008100002C064EB70E0298188E890E0821B9109B6
:1008200027FD9395880F991F880F991F5C01CC2491
:10083000B7FCC094DC2C882777FD8095982F2A81FF
:1008400048E552E0421B510927FD5395440F551FBF
:10085000440F551F8A01222717FD2095322F3F9301
:100860002F931F930F9314EBE12EF12C00E010E077
:1008700020E030E0A9010E9412060F900F900F9027
:100880000F90CE01DF91CF911F910F91FF90EF90CC
:10089000DF90CF90BF90AF900C94BD031F920F924A
:1008A0000FB60F9211242F933F938F939F93AF9383
:1008B000BF9380914D0190914E01A0914F01B09155
:1008C000500130915501232F2D5F2D3720F40196D3
:1008D000A11DB11D05C0232F2A570296A11DB11DD0
:1008E0002093550180934D0190934E01A0934F01A9
:1008F000B09350018091510190915201A091530108
:10090000B09154010196A11DB11D809351019093A6
:100910005201A0935301B0935401BF91AF919F91A5
:100920008F913F912F910F900FBE0F901F901895B0
:100930000F931F938FB7F89400914D0110914E01C2
:1009400020914F01309150018FBFB801C9011F9113
:100950000F910895019739F0880F991F880F991FFB
:1009600002970197F1F70895789484B5826084BD69
:1009700084B5816084BD85B5826085BD85B58160A3
:1009800085BDEEE6F0E0808181608083E1E8F0E003
:100990001082808182608083808181608083E0E832
:1009A000F0E0808181608083E1EBF0E08081846011
:1009B0008083E0EBF0E0808181608083EAE7F0E013
:1009C0008081846080838081826080838081816077
:1009D00080838081806880831092C10008951F9376
:1009E000CF93DF93182FEB0161E00E947A052097E7
:1009F00011F460E004C0CF3FD10539F461E0812FEC
:100A0000DF91CF911F910C94B205E12FF0E0E859EE
:100A1000FF4FE491E330B9F028F4E13051F0E230D7
:100A2000B1F50CC0E63019F1E73049F1E43079F561
:100A300014C084B5806884BDC7BD2EC084B58062F3
:100A400084BDC8BD29C080918000806880938000EB
:100A5000D0938900C09388001FC08091800080627D
:100A600080938000D0938B00C0938A0015C0809142
:100A7000B00080688093B000C093B3000DC0809137
:100A8000B00080628093B000C093B40005C0C0384D
:100A9000D1050CF0B3CFADCFDF91CF911F91089569
:100AA000833069F028F48130A1F0823011F514C050
:100AB0008630B1F08730C1F08430D9F404C0809121
:100AC00080008F7703C0809180008F7D80938000AD
:100AD000089584B58F7702C084B58F7D84BD089555
:100AE0008091B0008F7703C08091B0008F7D80939C
:100AF000B0000895CF93DF9390E0FC01E458FF4FDE
:100B00004491FC01E057FF4F8491882341F190E02C
:100B1000880F991FFC01E854FF4F25913491D901AA
:100B200082559F4FFC0185919491C82FD92F9FB773
:100B3000F8948C91611106C0409584238C93888130
:100B4000842308C0623041F4242F209582238C93A3
:100B50008881842B888302C0842B8C939FBFDF9174
:100B6000CF9108950F931F93CF93DF931F92CDB72B
:100B7000DEB7282F30E0F901E859FF4F8491F901E1
:100B8000E458FF4F1491F901E057FF4F04910023FF
:100B9000D1F0882321F069830E9450056981E02FFC
:100BA000F0E0EE0FFF1FE255FF4F85919491DC01BD
:100BB0009FB7F8948C91611103C01095812301C0F7
:100BC000812B8C939FBF0F90DF91CF911F910F913D
:100BD0000895CF93DF93282F30E0F901E859FF4FB4
:100BE0008491F901E458FF4FD491F901E057FF4F88
:100BF000C491CC2389F081110E945005EC2FF0E0C4
:100C0000EE0FFF1FEC55FF4F85919491DC018C9105
:100C10008D2321E030E011F420E030E0C901DF91C4
:100C2000CF9108954F925F926F927F92AF92BF9251
:100C3000CF92DF92EF92FF920F931F93CF93DF93A8
:100C4000CDB7DEB729013A01621B730B840B950BFC
:100C500029893A894B895C892A193B094C095D0924
:100C6000298B3A8B4B8B5C8B9B01AC0169897A8910
:100C70008B899C890E947108E418F50806091709F8
:100C8000A80197010E94AF082A0D3B1D4C1D5D1D58
:100C9000B901CA01DF91CF911F910F91FF90EF90A1
:100CA000DF90CF90BF90AF907F906F905F904F900C
:100CB00008950E94B4040E94FD00C5E3D7E00E949D
:100CC000E6012097E1F30E943507F9CFFC01848506
:100CD0009585FC01E05CFF4F20813181FC01EE5BDA
:100CE000FF4F80819181281B390B2F733327C90156
:100CF0000895FC0184859585FC01E05CFF4F4081EF
:100D00005181FC01EE5BFF4F208131814217530777
:100D100041F00190F081E02DE80FF91F208130E0D3
:100D200002C02FEF3FEFC9010895FC01848595852E
:100D3000FC01E05CFF4F40815181FC01EE5BFF4F05
:100D4000208131814217530781F0A081B181A80F22
:100D5000B91F8C91208131812F5F3F4F2F73332733
:100D600031832083282F30E002C02FEF3FEFC901ED
:100D70000895FC0186859785FC01E05CFF4FDC014E
:100D8000AE5BBF4F408151812D913C91119742172D
:100D90005307C1F70895CF93DF93FC0186859785AC
:100DA000DC01A05CBF4F2D913C9111972F5F3F4F0D
:100DB0002F733327EC01CE5BDF4F48815981241715
:100DC0003507D9F30D90BC91A02DA80FB91F6C93D6
:100DD000A685B785A05CBF4F11963C932E93A6893C
:100DE000B7892C9181E090E0058C02C0880F991F93
:100DF0000A94E2F7282B2C9381E090E0DF91CF91C9
:100E0000089508951F920F920FB60F9211242F93F9
:100E10003F934F938F939F93EF93FF934091C6001F
:100E20008091F9019091FA0101968F739927209191
:100E3000FB013091FC018217930759F0E091F90111
:100E4000F091FA01E754FE4F40839093FA018093AA
:100E5000F901FF91EF919F918F914F913F912F91C8
:100E60000F900FBE0F901F90189586E591E00E949D
:100E70006606892B11F00C94010708951F920F92BA
:100E80000FB60F9211242F933F938F939F93EF935D
:100E9000FF932091B5013091B6018091B7019091F7
:100EA000B8012817390731F48091C1008F7D8093F4
:100EB000C10014C0E091B701F091B801EB58FE4FAA
:100EC00020818091B7019091B80101968F73992785
:100ED0009093B8018093B7012093C600FF91EF91E2
:100EE0009F918F913F912F910F900FBE0F901F9068
:100EF0001895CF92DF92EF92FF92CF93DF93EC01A0
:100F00006A017B01411581EE580761057105F9F011
:100F1000EC89FD8981E090E00E8C02C0880F991F5A
:100F20000A94E2F7808360E079E08DE390E0A70126
:100F300096010E948D0821503109410951095695A9
:100F4000479537952795211580E1380798F0EC896A
:100F5000FD89108260E874E88EE190E0A7019601B7
:100F60000E948D0821503109410951095695479534
:100F700037952795E889F9893083EA89FB892083A9
:100F8000EE89FF89408181E090E09C010A8C02C0DB
:100F9000220F331F0A94E2F7422B4083EE89FF8928
:100FA00040819C010B8C02C0220F331F0A94E2F790
:100FB000422B4083EE89FF8940819C010C8C02C04A
:100FC000220F331F0A94E2F7422B4083EE89FF89F8
:100FD00020810D8C02C0880F991F0A94E2F780953A
:100FE00082238083DF91CF91FF90EF90DF90CF90AD
:100FF0000895109259011092580188EE93E0A0E0F4
:10100000B0E080935A0190935B01A0935C01B09390
:101010005D018DE091E0909357018093560189EB3B
:1010200091E0909363018093620185E791E0909352
:1010300065018093640185EC90E090936701809353
:10104000660184EC90E0909369018093680180ECE4
:1010500090E090936B0180936A0181EC90E0909313
:101060006D0180936C0186EC90E090936F0180930A
:101070006E0184E08093700183E08093710187E0CA
:101080008093720185E08093730181E08093740105
:101090000895CF92DF92EF92FF920F931F93CF9319
:1010A000DF936C01EB017A01E60EF71E00E010E021
:1010B0000BC06991D601ED91FC910190F081E02D7A
:1010C000C6010995080F191FCE15DF0591F7C80154
:1010D000DF91CF911F910F91FF90EF90DF90CF9014
:1010E0000895DB018F939F930E94CB08BF91AF912E
:1010F000A29F800D911DA39F900DB29F900D112472
:101100000895991B79E004C0991F961708F0961B63
:10111000881F7A95C9F780950895A1E21A2EAA1B17
:10112000BB1BFD010DC0AA1FBB1FEE1FFF1FA21797
:10113000B307E407F50720F0A21BB30BE40BF50B94
:10114000661F771F881F991F1A9469F7609570951D
:10115000809590959B01AC01BD01CF010895052EAE
:1011600097FB16F4009407D057FD0DD00E948D0810
:1011700007FC09D07EF490958095709561957F4F1E
:101180008F4F9F4F089550954095309521953F4F33
:101190004F4F5F4F08950E94DC08A59F900DB49FAC
:1011A000900DA49F800D911D11240895EE0FFF1F37
:1011B0000590F491E02D0994A29FB001B39FC00166
:1011C000A39F01D0B29F700D811D1124911D089520
:0411D000F894FFCFC1
:1011D400204E0000E80300004900000000CB06494F
:0A11E40008660695067906B90600B4
:00000001FF
